{
  "contractName": "EtherGift",
  "abi": [
    {
      "constant": true,
      "inputs": [],
      "name": "recipient",
      "outputs": [
        {
          "name": "",
          "type": "address"
        }
      ],
      "payable": false,
      "stateMutability": "view",
      "type": "function"
    },
    {
      "constant": true,
      "inputs": [],
      "name": "owner",
      "outputs": [
        {
          "name": "",
          "type": "address"
        }
      ],
      "payable": false,
      "stateMutability": "view",
      "type": "function"
    },
    {
      "inputs": [],
      "payable": false,
      "stateMutability": "nonpayable",
      "type": "constructor"
    },
    {
      "constant": false,
      "inputs": [
        {
          "name": "toAddress",
          "type": "address"
        }
      ],
      "name": "deposit",
      "outputs": [],
      "payable": true,
      "stateMutability": "payable",
      "type": "function"
    }
  ],
  "bytecode": "0x60806040527f78f19ab08e53f0d562e23d12f65884e631af6d13878d619364d5177e3915043260009060001916905534801561003a57600080fd5b5033600160006101000a81548173ffffffffffffffffffffffffffffffffffffffff021916908373ffffffffffffffffffffffffffffffffffffffff1602179055506102588061008b6000396000f300608060405260043610610057576000357c0100000000000000000000000000000000000000000000000000000000900463ffffffff16806366d003ac1461005c5780638da5cb5b146100b3578063f340fa011461010a575b600080fd5b34801561006857600080fd5b50610071610140565b604051808273ffffffffffffffffffffffffffffffffffffffff1673ffffffffffffffffffffffffffffffffffffffff16815260200191505060405180910390f35b3480156100bf57600080fd5b506100c8610166565b604051808273ffffffffffffffffffffffffffffffffffffffff1673ffffffffffffffffffffffffffffffffffffffff16815260200191505060405180910390f35b61013e600480360381019080803573ffffffffffffffffffffffffffffffffffffffff16906020019092919050505061018c565b005b600260009054906101000a900473ffffffffffffffffffffffffffffffffffffffff1681565b600160009054906101000a900473ffffffffffffffffffffffffffffffffffffffff1681565b600160009054906101000a900473ffffffffffffffffffffffffffffffffffffffff1673ffffffffffffffffffffffffffffffffffffffff163373ffffffffffffffffffffffffffffffffffffffff161415156101e857600080fd5b80600260006101000a81548173ffffffffffffffffffffffffffffffffffffffff021916908373ffffffffffffffffffffffffffffffffffffffff160217905550505600a165627a7a723058204ec68baad5cb76f9d1bf76e4da7d018f15c74d5e2c89a9ed41b3f6bfd54b70010029",
  "source": "pragma solidity ^0.4.24;\n\ncontract EtherGift{\n\n  bytes32 private security_question1 = hex\"78f19ab08e53f0d562e23d12f65884e631af6d13878d619364d5177e39150432\";\n  address public owner;\n  address public recipient;\n\n  constructor() public {\n    owner = msg.sender;\n  }\n\n  function deposit(address toAddress) external payable {\n    require(msg.sender == owner);\n    recipient = toAddress;\n  }\n\n}\n",
  "sourcePath": "/home/phantomhaze/Workspace/Web/truffle-gift/contracts/EtherGift.sol",
  "compiler": {
    "name": "solc",
    "version": "0.4.24+commit.e67f0147.Emscripten.clang"
  },
  "schemaVersion": "2.0.1",
  "updatedAt": "2018-12-05T08:43:08.200Z"
}