{
  "contractName": "EtherGift",
  "abi": [
    {
      "constant": true,
      "inputs": [],
      "name": "recipient",
      "outputs": [
        {
          "name": "",
          "type": "address"
        }
      ],
      "payable": false,
      "stateMutability": "view",
      "type": "function"
    },
    {
      "constant": true,
      "inputs": [],
      "name": "owner",
      "outputs": [
        {
          "name": "",
          "type": "address"
        }
      ],
      "payable": false,
      "stateMutability": "view",
      "type": "function"
    },
    {
      "inputs": [],
      "payable": false,
      "stateMutability": "nonpayable",
      "type": "constructor"
    },
    {
      "constant": false,
      "inputs": [
        {
          "name": "toAddress",
          "type": "address"
        }
      ],
      "name": "deposit",
      "outputs": [],
      "payable": true,
      "stateMutability": "payable",
      "type": "function"
    },
    {
      "constant": false,
      "inputs": [
        {
          "name": "answer1",
          "type": "string"
        },
        {
          "name": "answer2",
          "type": "string"
        }
      ],
      "name": "withdraw",
      "outputs": [],
      "payable": false,
      "stateMutability": "nonpayable",
      "type": "function"
    }
  ],
  "bytecode": "0x60806040527f78f19ab08e53f0d562e23d12f65884e631af6d13878d619364d5177e391504326000906000191690557fb5b35d1f7dc7cf1448a70456de4980702e1fdae4e057d31003c0e1e4b3c4bde260019060001916905534801561006457600080fd5b5033600260006101000a81548173ffffffffffffffffffffffffffffffffffffffff021916908373ffffffffffffffffffffffffffffffffffffffff160217905550610553806100b56000396000f300608060405260043610610062576000357c0100000000000000000000000000000000000000000000000000000000900463ffffffff16806320b2e7bf1461006757806366d003ac146101165780638da5cb5b1461016d578063f340fa01146101c4575b600080fd5b34801561007357600080fd5b50610114600480360381019080803590602001908201803590602001908080601f0160208091040260200160405190810160405280939291908181526020018383808284378201915050505050509192919290803590602001908201803590602001908080601f01602080910402602001604051908101604052809392919081815260200183838082843782019150505050505091929192905050506101fa565b005b34801561012257600080fd5b5061012b61043b565b604051808273ffffffffffffffffffffffffffffffffffffffff1673ffffffffffffffffffffffffffffffffffffffff16815260200191505060405180910390f35b34801561017957600080fd5b50610182610461565b604051808273ffffffffffffffffffffffffffffffffffffffff1673ffffffffffffffffffffffffffffffffffffffff16815260200191505060405180910390f35b6101f8600480360381019080803573ffffffffffffffffffffffffffffffffffffffff169060200190929190505050610487565b005b600360009054906101000a900473ffffffffffffffffffffffffffffffffffffffff1673ffffffffffffffffffffffffffffffffffffffff163373ffffffffffffffffffffffffffffffffffffffff1614151561025657600080fd5b60005460001916826040516020018082805190602001908083835b6020831015156102965780518252602082019150602081019050602083039250610271565b6001836020036101000a0380198251168184511680821785525050505050509050019150506040516020818303038152906040526040518082805190602001908083835b6020831015156102ff57805182526020820191506020810190506020830392506102da565b6001836020036101000a03801982511681845116808217855250505050505090500191505060405180910390206000191614151561033c57600080fd5b60015460001916816040516020018082805190602001908083835b60208310151561037c5780518252602082019150602081019050602083039250610357565b6001836020036101000a0380198251168184511680821785525050505050509050019150506040516020818303038152906040526040518082805190602001908083835b6020831015156103e557805182526020820191506020810190506020830392506103c0565b6001836020036101000a03801982511681845116808217855250505050505090500191505060405180910390206000191614151561042257600080fd5b3373ffffffffffffffffffffffffffffffffffffffff16ff5b600360009054906101000a900473ffffffffffffffffffffffffffffffffffffffff1681565b600260009054906101000a900473ffffffffffffffffffffffffffffffffffffffff1681565b600260009054906101000a900473ffffffffffffffffffffffffffffffffffffffff1673ffffffffffffffffffffffffffffffffffffffff163373ffffffffffffffffffffffffffffffffffffffff161415156104e357600080fd5b80600360006101000a81548173ffffffffffffffffffffffffffffffffffffffff021916908373ffffffffffffffffffffffffffffffffffffffff160217905550505600a165627a7a7230582033318865645a18c7d513c007cc4fda8e250a1da97ee97a1920db2c45185a414e0029",
  "source": "pragma solidity ^0.4.24;\n\ncontract EtherGift{\n\n  bytes32 private security_question1 = hex\"78f19ab08e53f0d562e23d12f65884e631af6d13878d619364d5177e39150432\";\n  bytes32 private security_question2 = hex\"b5b35d1f7dc7cf1448a70456de4980702e1fdae4e057d31003c0e1e4b3c4bde2\";\n  address public owner;\n  address public recipient;\n\n  constructor() public {\n    owner = msg.sender;\n  }\n\n  function deposit(address toAddress) external payable {\n    require(msg.sender == owner);\n    recipient = toAddress;\n  }\n\n  function withdraw(string answer1, string answer2) public {\n    require(msg.sender == recipient);\n    require(keccak256(abi.encodePacked(answer1)) == security_question1);\n    require(keccak256(abi.encodePacked(answer2)) == security_question2);\n    selfdestruct(msg.sender);\n  }\n\n}\n",
  "sourcePath": "/home/phantomhaze/Workspace/Web/truffle-gift/contracts/EtherGift.sol",
  "compiler": {
    "name": "solc",
    "version": "0.4.24+commit.e67f0147.Emscripten.clang"
  },
  "schemaVersion": "2.0.1",
  "updatedAt": "2018-12-08T07:16:58.284Z"
}